{
  "contractName": "Election",
  "abi": [
    {
      "inputs": [],
      "stateMutability": "nonpayable",
      "type": "constructor"
    },
    {
      "anonymous": false,
      "inputs": [
        {
          "indexed": false,
          "internalType": "uint256",
          "name": "electionId",
          "type": "uint256"
        },
        {
          "indexed": false,
          "internalType": "uint256",
          "name": "candidateId",
          "type": "uint256"
        }
      ],
      "name": "CandidateAdded",
      "type": "event"
    },
    {
      "anonymous": false,
      "inputs": [
        {
          "indexed": false,
          "internalType": "uint256",
          "name": "electionId",
          "type": "uint256"
        },
        {
          "indexed": false,
          "internalType": "string",
          "name": "title",
          "type": "string"
        }
      ],
      "name": "ElectionCreated",
      "type": "event"
    },
    {
      "anonymous": false,
      "inputs": [
        {
          "indexed": false,
          "internalType": "uint256",
          "name": "electionId",
          "type": "uint256"
        },
        {
          "indexed": false,
          "internalType": "uint256",
          "name": "candidateId",
          "type": "uint256"
        }
      ],
      "name": "VoteCast",
      "type": "event"
    },
    {
      "inputs": [],
      "name": "admin",
      "outputs": [
        {
          "internalType": "address",
          "name": "",
          "type": "address"
        }
      ],
      "stateMutability": "view",
      "type": "function",
      "constant": true
    },
    {
      "inputs": [],
      "name": "electionCount",
      "outputs": [
        {
          "internalType": "uint256",
          "name": "",
          "type": "uint256"
        }
      ],
      "stateMutability": "view",
      "type": "function",
      "constant": true
    },
    {
      "inputs": [
        {
          "internalType": "uint256",
          "name": "",
          "type": "uint256"
        }
      ],
      "name": "elections",
      "outputs": [
        {
          "internalType": "string",
          "name": "title",
          "type": "string"
        },
        {
          "internalType": "uint256",
          "name": "startTime",
          "type": "uint256"
        },
        {
          "internalType": "uint256",
          "name": "endTime",
          "type": "uint256"
        },
        {
          "internalType": "bool",
          "name": "isPaused",
          "type": "bool"
        },
        {
          "internalType": "uint256",
          "name": "candidateCount",
          "type": "uint256"
        }
      ],
      "stateMutability": "view",
      "type": "function",
      "constant": true
    },
    {
      "inputs": [
        {
          "internalType": "string",
          "name": "title",
          "type": "string"
        },
        {
          "internalType": "uint256",
          "name": "startTime",
          "type": "uint256"
        },
        {
          "internalType": "uint256",
          "name": "endTime",
          "type": "uint256"
        }
      ],
      "name": "createElection",
      "outputs": [],
      "stateMutability": "nonpayable",
      "type": "function"
    },
    {
      "inputs": [
        {
          "internalType": "uint256",
          "name": "electionId",
          "type": "uint256"
        },
        {
          "internalType": "uint256",
          "name": "candidateId",
          "type": "uint256"
        },
        {
          "internalType": "string",
          "name": "name",
          "type": "string"
        },
        {
          "internalType": "string",
          "name": "description",
          "type": "string"
        },
        {
          "internalType": "string",
          "name": "imageURL",
          "type": "string"
        }
      ],
      "name": "addCandidate",
      "outputs": [],
      "stateMutability": "nonpayable",
      "type": "function"
    },
    {
      "inputs": [
        {
          "internalType": "uint256",
          "name": "electionId",
          "type": "uint256"
        },
        {
          "internalType": "uint256",
          "name": "candidateId",
          "type": "uint256"
        }
      ],
      "name": "vote",
      "outputs": [],
      "stateMutability": "nonpayable",
      "type": "function"
    },
    {
      "inputs": [
        {
          "internalType": "uint256",
          "name": "electionId",
          "type": "uint256"
        }
      ],
      "name": "pauseElection",
      "outputs": [],
      "stateMutability": "nonpayable",
      "type": "function"
    },
    {
      "inputs": [
        {
          "internalType": "uint256",
          "name": "electionId",
          "type": "uint256"
        }
      ],
      "name": "resumeElection",
      "outputs": [],
      "stateMutability": "nonpayable",
      "type": "function"
    },
    {
      "inputs": [
        {
          "internalType": "uint256",
          "name": "electionId",
          "type": "uint256"
        }
      ],
      "name": "getElectionResults",
      "outputs": [
        {
          "components": [
            {
              "internalType": "string",
              "name": "name",
              "type": "string"
            },
            {
              "internalType": "string",
              "name": "description",
              "type": "string"
            },
            {
              "internalType": "string",
              "name": "imageURL",
              "type": "string"
            },
            {
              "internalType": "uint256",
              "name": "voteCount",
              "type": "uint256"
            }
          ],
          "internalType": "struct Election.Candidate[]",
          "name": "",
          "type": "tuple[]"
        }
      ],
      "stateMutability": "view",
      "type": "function",
      "constant": true
    }
  ],
  "bytecode": "0x608060405234801561000f575f80fd5b503360025f6101000a81548173ffffffffffffffffffffffffffffffffffffffff021916908373ffffffffffffffffffffffffffffffffffffffff16021790555061199e8061005d5f395ff3fe608060405234801561000f575f80fd5b5060043610610091575f3560e01c8063b384abef11610064578063b384abef1461011f578063ba18fd041461013b578063e8ededa614610157578063f49a7a1714610187578063f851a440146101a357610091565b806326059873146100955780632e4ecae1146100b15780635e6fef01146100cd578063997d283014610101575b5f80fd5b6100af60048036038101906100aa9190610cd2565b6101c1565b005b6100cb60048036038101906100c69190610cd2565b61027d565b005b6100e760048036038101906100e29190610cd2565b61033a565b6040516100f8959493929190610db0565b60405180910390f35b6101096103fd565b6040516101169190610e08565b60405180910390f35b61013960048036038101906101349190610e21565b610403565b005b61015560048036038101906101509190610f8b565b610639565b005b610171600480360381019061016c9190610cd2565b610815565b60405161017e91906111d6565b60405180910390f35b6101a1600480360381019061019c91906111f6565b610abf565b005b6101ab610c42565b6040516101b891906112a1565b60405180910390f35b60025f9054906101000a900473ffffffffffffffffffffffffffffffffffffffff1673ffffffffffffffffffffffffffffffffffffffff163373ffffffffffffffffffffffffffffffffffffffff1614610250576040517f08c379a00000000000000000000000000000000000000000000000000000000081526004016102479061132a565b60405180910390fd5b5f805f8381526020019081526020015f206003015f6101000a81548160ff02191690831515021790555050565b60025f9054906101000a900473ffffffffffffffffffffffffffffffffffffffff1673ffffffffffffffffffffffffffffffffffffffff163373ffffffffffffffffffffffffffffffffffffffff161461030c576040517f08c379a00000000000000000000000000000000000000000000000000000000081526004016103039061132a565b60405180910390fd5b60015f808381526020019081526020015f206003015f6101000a81548160ff02191690831515021790555050565b5f602052805f5260405f205f91509050805f01805461035890611375565b80601f016020809104026020016040519081016040528092919081815260200182805461038490611375565b80156103cf5780601f106103a6576101008083540402835291602001916103cf565b820191905f5260205f20905b8154815290600101906020018083116103b257829003601f168201915b505050505090806001015490806002015490806003015f9054906101000a900460ff16908060060154905085565b60015481565b815f808281526020019081526020015f2060010154421015801561043a57505f808281526020019081526020015f20600201544211155b610479576040517f08c379a0000000000000000000000000000000000000000000000000000000008152600401610470906113ef565b60405180910390fd5b5f808281526020019081526020015f206003015f9054906101000a900460ff16156104d9576040517f08c379a00000000000000000000000000000000000000000000000000000000081526004016104d090611457565b60405180910390fd5b5f805f8581526020019081526020015f209050806004015f3373ffffffffffffffffffffffffffffffffffffffff1673ffffffffffffffffffffffffffffffffffffffff1681526020019081526020015f205f9054906101000a900460ff1615610578576040517f08c379a000000000000000000000000000000000000000000000000000000000815260040161056f906114bf565b60405180910390fd5b806005015f8481526020019081526020015f206003015f81548092919061059e9061150a565b91905055506001816004015f3373ffffffffffffffffffffffffffffffffffffffff1673ffffffffffffffffffffffffffffffffffffffff1681526020019081526020015f205f6101000a81548160ff0219169083151502179055507fc31875ef3ed5138b71a0c1da7e494bc4d2ba4f567084ea481ec9c45f3a93948b848460405161062b929190611551565b60405180910390a150505050565b60025f9054906101000a900473ffffffffffffffffffffffffffffffffffffffff1673ffffffffffffffffffffffffffffffffffffffff163373ffffffffffffffffffffffffffffffffffffffff16146106c8576040517f08c379a00000000000000000000000000000000000000000000000000000000081526004016106bf9061132a565b60405180910390fd5b5f808681526020019081526020015f2060010154421061071d576040517f08c379a0000000000000000000000000000000000000000000000000000000008152600401610714906115e8565b60405180910390fd5b60405180608001604052808481526020018381526020018281526020015f8152505f808781526020019081526020015f206005015f8681526020019081526020015f205f820151815f01908161077391906117a3565b50602082015181600101908161078991906117a3565b50604082015181600201908161079f91906117a3565b50606082015181600301559050505f808681526020019081526020015f206006015f8154809291906107d09061150a565b91905055507fa072a1e90a5e808c6722a8b7c3457a422c2ee51d7b1a53dceb40bcb32586ac708585604051610806929190611551565b60405180910390a15050505050565b60605f805f8481526020019081526020015f206006015467ffffffffffffffff81111561084557610844610e67565b5b60405190808252806020026020018201604052801561087e57816020015b61086b610c67565b8152602001906001900390816108635790505b5090505f5b5f808581526020019081526020015f2060060154811015610ab5575f808581526020019081526020015f206005015f8281526020019081526020015f206040518060800160405290815f820180546108da90611375565b80601f016020809104026020016040519081016040528092919081815260200182805461090690611375565b80156109515780601f1061092857610100808354040283529160200191610951565b820191905f5260205f20905b81548152906001019060200180831161093457829003601f168201915b5050505050815260200160018201805461096a90611375565b80601f016020809104026020016040519081016040528092919081815260200182805461099690611375565b80156109e15780601f106109b8576101008083540402835291602001916109e1565b820191905f5260205f20905b8154815290600101906020018083116109c457829003601f168201915b505050505081526020016002820180546109fa90611375565b80601f0160208091040260200160405190810160405280929190818152602001828054610a2690611375565b8015610a715780601f10610a4857610100808354040283529160200191610a71565b820191905f5260205f20905b815481529060010190602001808311610a5457829003601f168201915b50505050508152602001600382015481525050828281518110610a9757610a96611872565b5b60200260200101819052508080610aad9061150a565b915050610883565b5080915050919050565b60025f9054906101000a900473ffffffffffffffffffffffffffffffffffffffff1673ffffffffffffffffffffffffffffffffffffffff163373ffffffffffffffffffffffffffffffffffffffff1614610b4e576040517f08c379a0000000000000000000000000000000000000000000000000000000008152600401610b459061132a565b60405180910390fd5b808210610b90576040517f08c379a0000000000000000000000000000000000000000000000000000000008152600401610b87906118e9565b60405180910390fd5b5f805f60015f815480929190610ba59061150a565b9190505581526020019081526020015f20905083815f019081610bc891906117a3565b508281600101819055508181600201819055505f816003015f6101000a81548160ff0219169083151502179055507f52be7c4e77b4de76b7607d621492061fe13b58597e72dfb5e51ab8f6187ed14160018054610c259190611907565b85604051610c3492919061193a565b60405180910390a150505050565b60025f9054906101000a900473ffffffffffffffffffffffffffffffffffffffff1681565b60405180608001604052806060815260200160608152602001606081526020015f81525090565b5f604051905090565b5f80fd5b5f80fd5b5f819050919050565b610cb181610c9f565b8114610cbb575f80fd5b50565b5f81359050610ccc81610ca8565b92915050565b5f60208284031215610ce757610ce6610c97565b5b5f610cf484828501610cbe565b91505092915050565b5f81519050919050565b5f82825260208201905092915050565b5f5b83811015610d34578082015181840152602081019050610d19565b5f8484015250505050565b5f601f19601f8301169050919050565b5f610d5982610cfd565b610d638185610d07565b9350610d73818560208601610d17565b610d7c81610d3f565b840191505092915050565b610d9081610c9f565b82525050565b5f8115159050919050565b610daa81610d96565b82525050565b5f60a0820190508181035f830152610dc88188610d4f565b9050610dd76020830187610d87565b610de46040830186610d87565b610df16060830185610da1565b610dfe6080830184610d87565b9695505050505050565b5f602082019050610e1b5f830184610d87565b92915050565b5f8060408385031215610e3757610e36610c97565b5b5f610e4485828601610cbe565b9250506020610e5585828601610cbe565b9150509250929050565b5f80fd5b5f80fd5b7f4e487b71000000000000000000000000000000000000000000000000000000005f52604160045260245ffd5b610e9d82610d3f565b810181811067ffffffffffffffff82111715610ebc57610ebb610e67565b5b80604052505050565b5f610ece610c8e565b9050610eda8282610e94565b919050565b5f67ffffffffffffffff821115610ef957610ef8610e67565b5b610f0282610d3f565b9050602081019050919050565b828183375f83830152505050565b5f610f2f610f2a84610edf565b610ec5565b905082815260208101848484011115610f4b57610f4a610e63565b5b610f56848285610f0f565b509392505050565b5f82601f830112610f7257610f71610e5f565b5b8135610f82848260208601610f1d565b91505092915050565b5f805f805f60a08688031215610fa457610fa3610c97565b5b5f610fb188828901610cbe565b9550506020610fc288828901610cbe565b945050604086013567ffffffffffffffff811115610fe357610fe2610c9b565b5b610fef88828901610f5e565b935050606086013567ffffffffffffffff8111156110105761100f610c9b565b5b61101c88828901610f5e565b925050608086013567ffffffffffffffff81111561103d5761103c610c9b565b5b61104988828901610f5e565b9150509295509295909350565b5f81519050919050565b5f82825260208201905092915050565b5f819050602082019050919050565b5f82825260208201905092915050565b5f61109982610cfd565b6110a3818561107f565b93506110b3818560208601610d17565b6110bc81610d3f565b840191505092915050565b6110d081610c9f565b82525050565b5f608083015f8301518482035f8601526110f0828261108f565b9150506020830151848203602086015261110a828261108f565b91505060408301518482036040860152611124828261108f565b915050606083015161113960608601826110c7565b508091505092915050565b5f61114f83836110d6565b905092915050565b5f602082019050919050565b5f61116d82611056565b6111778185611060565b93508360208202850161118985611070565b805f5b858110156111c457848403895281516111a58582611144565b94506111b083611157565b925060208a0199505060018101905061118c565b50829750879550505050505092915050565b5f6020820190508181035f8301526111ee8184611163565b905092915050565b5f805f6060848603121561120d5761120c610c97565b5b5f84013567ffffffffffffffff81111561122a57611229610c9b565b5b61123686828701610f5e565b935050602061124786828701610cbe565b925050604061125886828701610cbe565b9150509250925092565b5f73ffffffffffffffffffffffffffffffffffffffff82169050919050565b5f61128b82611262565b9050919050565b61129b81611281565b82525050565b5f6020820190506112b45f830184611292565b92915050565b7f4f6e6c792061646d696e2063616e20706572666f726d207468697320616374695f8201527f6f6e2e0000000000000000000000000000000000000000000000000000000000602082015250565b5f611314602383610d07565b915061131f826112ba565b604082019050919050565b5f6020820190508181035f83015261134181611308565b9050919050565b7f4e487b71000000000000000000000000000000000000000000000000000000005f52602260045260245ffd5b5f600282049050600182168061138c57607f821691505b60208210810361139f5761139e611348565b5b50919050565b7f456c656374696f6e206973206e6f74206163746976652e0000000000000000005f82015250565b5f6113d9601783610d07565b91506113e4826113a5565b602082019050919050565b5f6020820190508181035f830152611406816113cd565b9050919050565b7f456c656374696f6e206973207061757365642e000000000000000000000000005f82015250565b5f611441601383610d07565b915061144c8261140d565b602082019050919050565b5f6020820190508181035f83015261146e81611435565b9050919050565b7f596f7527766520616c726561647920766f7465642e00000000000000000000005f82015250565b5f6114a9601583610d07565b91506114b482611475565b602082019050919050565b5f6020820190508181035f8301526114d68161149d565b9050919050565b7f4e487b71000000000000000000000000000000000000000000000000000000005f52601160045260245ffd5b5f61151482610c9f565b91507fffffffffffffffffffffffffffffffffffffffffffffffffffffffffffffffff8203611546576115456114dd565b5b600182019050919050565b5f6040820190506115645f830185610d87565b6115716020830184610d87565b9392505050565b7f43616e6e6f74206164642063616e6469646174657320616674657220746865205f8201527f656c656374696f6e2068617320737461727465642e0000000000000000000000602082015250565b5f6115d2603583610d07565b91506115dd82611578565b604082019050919050565b5f6020820190508181035f8301526115ff816115c6565b9050919050565b5f819050815f5260205f209050919050565b5f6020601f8301049050919050565b5f82821b905092915050565b5f600883026116627fffffffffffffffffffffffffffffffffffffffffffffffffffffffffffffffff82611627565b61166c8683611627565b95508019841693508086168417925050509392505050565b5f819050919050565b5f6116a76116a261169d84610c9f565b611684565b610c9f565b9050919050565b5f819050919050565b6116c08361168d565b6116d46116cc826116ae565b848454611633565b825550505050565b5f90565b6116e86116dc565b6116f38184846116b7565b505050565b5b818110156117165761170b5f826116e0565b6001810190506116f9565b5050565b601f82111561175b5761172c81611606565b61173584611618565b81016020851015611744578190505b61175861175085611618565b8301826116f8565b50505b505050565b5f82821c905092915050565b5f61177b5f1984600802611760565b1980831691505092915050565b5f611793838361176c565b9150826002028217905092915050565b6117ac82610cfd565b67ffffffffffffffff8111156117c5576117c4610e67565b5b6117cf8254611375565b6117da82828561171a565b5f60209050601f83116001811461180b575f84156117f9578287015190505b6118038582611788565b86555061186a565b601f19841661181986611606565b5f5b828110156118405784890151825560018201915060208501945060208101905061181b565b8683101561185d5784890151611859601f89168261176c565b8355505b6001600288020188555050505b505050505050565b7f4e487b71000000000000000000000000000000000000000000000000000000005f52603260045260245ffd5b7f496e76616c69642074696d652072616e67652e000000000000000000000000005f82015250565b5f6118d3601383610d07565b91506118de8261189f565b602082019050919050565b5f6020820190508181035f830152611900816118c7565b9050919050565b5f61191182610c9f565b915061191c83610c9f565b9250828203905081811115611934576119336114dd565b5b92915050565b5f60408201905061194d5f830185610d87565b818103602083015261195f8184610d4f565b9050939250505056fea2646970667358221220befa7ff3f71b34e9c86a6fcab89b1232b387ffd3d3119c119cc0c8834d38dcca64736f6c63430008150033",
  "immutableReferences": {},
  "source": "// SPDX-License-Identifier: MIT\npragma solidity ^0.8.21;\n\ncontract Election {\n    //   \n    struct Candidate {\n        string name;          //  \n        string description;   //  \n        string imageURL;     //   \n        uint voteCount;      //      \n    }\n\n    //    \n    struct ElectionDetails {\n        string title;          //  \n        uint startTime;        //   \n        uint endTime;          //   \n        bool isPaused;         //   \n        mapping(address => bool) hasVoted; //    \n        mapping(uint => Candidate) candidates; //      \n        uint candidateCount;   //  \n    }\n\n    mapping(uint => ElectionDetails) public elections; //      \n    uint public electionCount; //  \n    address public admin; //     \n\n    event ElectionCreated(uint electionId, string title); //      \n    event VoteCast(uint electionId, uint candidateId); //     \n    event CandidateAdded(uint electionId, uint candidateId); //      \n\n    //        \n    modifier onlyAdmin() {\n        require(msg.sender == admin, \"Only admin can perform this action.\"); //    \n        _;\n    }\n\n    //        \n    modifier onlyDuringElection(uint electionId) {\n        require(block.timestamp >= elections[electionId].startTime && block.timestamp <= elections[electionId].endTime, \"Election is not active.\"); //    \n        require(!elections[electionId].isPaused, \"Election is paused.\"); //    \n        _;\n    }\n\n    //     \n    constructor() {\n        admin = msg.sender; //       \n    }\n\n    //    \n    function createElection(string memory title, uint startTime, uint endTime) public onlyAdmin {\n        require(startTime < endTime, \"Invalid time range.\"); //         \n        ElectionDetails storage newElection = elections[electionCount++]; //    \n        newElection.title = title; //   \n        newElection.startTime = startTime; //   \n        newElection.endTime = endTime; //   \n        newElection.isPaused = false; //     \n\n        emit ElectionCreated(electionCount - 1, title); //    \n    }\n\n    //       \n    function addCandidate(uint electionId, uint candidateId, string memory name, string memory description, string memory imageURL) public onlyAdmin {\n        require(block.timestamp < elections[electionId].startTime, \"Cannot add candidates after the election has started.\"); //          \n        elections[electionId].candidates[candidateId] = Candidate(name, description, imageURL, 0); //     \n        elections[electionId].candidateCount++; //   \n\n        emit CandidateAdded(electionId, candidateId); //    \n    }\n\n    //       \n    function vote(uint electionId, uint candidateId) public onlyDuringElection(electionId) {\n        ElectionDetails storage election = elections[electionId]; //    \n        require(!election.hasVoted[msg.sender], \"You've already voted.\"); //       \n\n        election.candidates[candidateId].voteCount++; //    \n        election.hasVoted[msg.sender] = true; //     \n\n        emit VoteCast(electionId, candidateId); //   \n    }\n\n    //    \n    function pauseElection(uint electionId) public onlyAdmin {\n        elections[electionId].isPaused = true; //     \n    }\n\n    //    \n    function resumeElection(uint electionId) public onlyAdmin {\n        elections[electionId].isPaused = false; //      \n    }\n\n    //      \n    function getElectionResults(uint electionId) public view returns (Candidate[] memory) {\n        Candidate[] memory results = new Candidate[](elections[electionId].candidateCount);\n        for (uint i = 0; i < elections[electionId].candidateCount; i++) {\n            results[i] = elections[electionId].candidates[i]; //     \n        }\n        return results; //    \n    }\n}",
  "sourcePath": "C:\\Users\\wisam\\Downloads\\Voting\\contracts\\Election.sol",
  "compiler": {
    "name": "solc",
    "version": "0.8.21+commit.d9974bed.Emscripten.clang"
  },
  "schemaVersion": "3.4.16",
  "updatedAt": "2024-12-15T13:30:27.890Z",
  "networkType": "ethereum",
  "devdoc": {
    "kind": "dev",
    "methods": {},
    "version": 1
  },
  "userdoc": {
    "kind": "user",
    "methods": {},
    "version": 1
  }
}